{
  "_format": "hh-sol-artifact-1",
  "contractName": "ProofVerifier",
  "sourceName": "contracts/ProofVerifier.sol",
  "abi": [
    {
      "inputs": [
        {
          "internalType": "address",
          "name": "_trustLinkCoreAddress",
          "type": "address"
        }
      ],
      "stateMutability": "nonpayable",
      "type": "constructor"
    },
    {
      "anonymous": false,
      "inputs": [
        {
          "indexed": true,
          "internalType": "bytes32",
          "name": "documentHash",
          "type": "bytes32"
        },
        {
          "indexed": false,
          "internalType": "address",
          "name": "verifiedBy",
          "type": "address"
        },
        {
          "indexed": false,
          "internalType": "uint256",
          "name": "timestamp",
          "type": "uint256"
        }
      ],
      "name": "ProofVerified",
      "type": "event"
    },
    {
      "inputs": [
        {
          "internalType": "bytes32[]",
          "name": "_documentHashes",
          "type": "bytes32[]"
        }
      ],
      "name": "batchVerify",
      "outputs": [
        {
          "internalType": "bool[]",
          "name": "results",
          "type": "bool[]"
        }
      ],
      "stateMutability": "nonpayable",
      "type": "function"
    },
    {
      "inputs": [
        {
          "internalType": "bytes32[]",
          "name": "_documentHashes",
          "type": "bytes32[]"
        }
      ],
      "name": "batchVerifyReadOnly",
      "outputs": [
        {
          "internalType": "bool[]",
          "name": "results",
          "type": "bool[]"
        }
      ],
      "stateMutability": "view",
      "type": "function"
    },
    {
      "inputs": [
        {
          "internalType": "bytes32[]",
          "name": "_documentHashes",
          "type": "bytes32[]"
        }
      ],
      "name": "checkProofsExist",
      "outputs": [
        {
          "internalType": "bool[]",
          "name": "",
          "type": "bool[]"
        }
      ],
      "stateMutability": "view",
      "type": "function"
    },
    {
      "inputs": [
        {
          "internalType": "bytes32",
          "name": "_documentHash",
          "type": "bytes32"
        }
      ],
      "name": "getProofDetails",
      "outputs": [
        {
          "internalType": "bool",
          "name": "exists",
          "type": "bool"
        },
        {
          "internalType": "uint256",
          "name": "timestamp",
          "type": "uint256"
        },
        {
          "internalType": "uint256",
          "name": "agreementId",
          "type": "uint256"
        },
        {
          "internalType": "address",
          "name": "submittedBy",
          "type": "address"
        },
        {
          "internalType": "uint256",
          "name": "ageInSeconds",
          "type": "uint256"
        }
      ],
      "stateMutability": "view",
      "type": "function"
    },
    {
      "inputs": [],
      "name": "trustLinkCore",
      "outputs": [
        {
          "internalType": "contract ITrustLinkCore",
          "name": "",
          "type": "address"
        }
      ],
      "stateMutability": "view",
      "type": "function"
    },
    {
      "inputs": [
        {
          "internalType": "bytes32",
          "name": "_documentHash",
          "type": "bytes32"
        }
      ],
      "name": "verify",
      "outputs": [
        {
          "internalType": "bool",
          "name": "exists",
          "type": "bool"
        },
        {
          "internalType": "uint256",
          "name": "timestamp",
          "type": "uint256"
        },
        {
          "internalType": "address",
          "name": "submittedBy",
          "type": "address"
        }
      ],
      "stateMutability": "nonpayable",
      "type": "function"
    },
    {
      "inputs": [
        {
          "internalType": "bytes32",
          "name": "_documentHash",
          "type": "bytes32"
        }
      ],
      "name": "verifyReadOnly",
      "outputs": [
        {
          "internalType": "bool",
          "name": "exists",
          "type": "bool"
        },
        {
          "internalType": "uint256",
          "name": "timestamp",
          "type": "uint256"
        },
        {
          "internalType": "address",
          "name": "submittedBy",
          "type": "address"
        }
      ],
      "stateMutability": "view",
      "type": "function"
    }
  ],
  "bytecode": "0x608060405234801561001057600080fd5b506040516109b93803806109b983398101604081905261002f91610054565b600080546001600160a01b0319166001600160a01b0392909216919091179055610084565b60006020828403121561006657600080fd5b81516001600160a01b038116811461007d57600080fd5b9392505050565b610926806100936000396000f3fe608060405234801561001057600080fd5b506004361061007d5760003560e01c806375e366161161005b57806375e366161461010b5780637dc243ea1461011e578063c8fa615714610164578063efb220d81461017757600080fd5b80632c7dacc7146100825780635105b1ba146100c05780636d2ea198146100eb575b600080fd5b610095610090366004610751565b61018a565b60408051931515845260208401929092526001600160a01b0316908201526060015b60405180910390f35b6000546100d3906001600160a01b031681565b6040516001600160a01b0390911681526020016100b7565b6100fe6100f936600461076a565b610211565b6040516100b791906107df565b610095610119366004610751565b610330565b61013161012c366004610751565b6103fb565b6040805195151586526020860194909452928401919091526001600160a01b03166060830152608082015260a0016100b7565b6100fe61017236600461076a565b6104ac565b6100fe61018536600461076a565b610630565b60008054604051632c50ad3b60e21b815260048101849052829182918291829182916001600160a01b03169063b142b4ec90602401608060405180830381865afa1580156101dc573d6000803e3d6000fd5b505050506040513d601f19601f820116820180604052508101906102009190610825565b929a91995091975095505050505050565b60608167ffffffffffffffff81111561022c5761022c610882565b604051908082528060200260200182016040528015610255578160200160208202803683370190505b50905060005b8281101561032857600080546001600160a01b031663b142b4ec86868581811061028757610287610898565b905060200201356040518263ffffffff1660e01b81526004016102ac91815260200190565b608060405180830381865afa1580156102c9573d6000803e3d6000fd5b505050506040513d601f19601f820116820180604052508101906102ed9190610825565b50505090508083838151811061030557610305610898565b911515602092830291909101909101525080610320816108c4565b91505061025b565b505b92915050565b60008054604051632c50ad3b60e21b815260048101849052829182918291829182916001600160a01b03169063b142b4ec90602401608060405180830381865afa158015610382573d6000803e3d6000fd5b505050506040513d601f19601f820116820180604052508101906103a69190610825565b9350509250925082156103ee576040805133815242602082015288917f3cbbb4765049102f7d16784aa5e5d53a1f94d5da6878a63974ffabb4989147d6910160405180910390a25b9196909550909350915050565b60008054604051632c50ad3b60e21b815260048101849052829182918291829182918291829182916001600160a01b039091169063b142b4ec90602401608060405180830381865afa158015610455573d6000803e3d6000fd5b505050506040513d601f19601f820116820180604052508101906104799190610825565b935093509350935060008461048f576000610499565b61049984426108dd565b949b939a50919850965091945092505050565b60608167ffffffffffffffff8111156104c7576104c7610882565b6040519080825280602002602001820160405280156104f0578160200160208202803683370190505b50905060005b8281101561032857600080546001600160a01b031663b142b4ec86868581811061052257610522610898565b905060200201356040518263ffffffff1660e01b815260040161054791815260200190565b608060405180830381865afa158015610564573d6000803e3d6000fd5b505050506040513d601f19601f820116820180604052508101906105889190610825565b5050509050808383815181106105a0576105a0610898565b91151560209283029190910190910152801561061d578484838181106105c8576105c8610898565b905060200201357f3cbbb4765049102f7d16784aa5e5d53a1f94d5da6878a63974ffabb4989147d633426040516106149291906001600160a01b03929092168252602082015260400190565b60405180910390a25b5080610628816108c4565b9150506104f6565b606060008267ffffffffffffffff81111561064d5761064d610882565b604051908082528060200260200182016040528015610676578160200160208202803683370190505b50905060005b8381101561074957600080546001600160a01b031663b142b4ec8787858181106106a8576106a8610898565b905060200201356040518263ffffffff1660e01b81526004016106cd91815260200190565b608060405180830381865afa1580156106ea573d6000803e3d6000fd5b505050506040513d601f19601f8201168201806040525081019061070e9190610825565b50505090508083838151811061072657610726610898565b911515602092830291909101909101525080610741816108c4565b91505061067c565b509392505050565b60006020828403121561076357600080fd5b5035919050565b6000806020838503121561077d57600080fd5b823567ffffffffffffffff8082111561079557600080fd5b818501915085601f8301126107a957600080fd5b8135818111156107b857600080fd5b8660208260051b85010111156107cd57600080fd5b60209290920196919550909350505050565b6020808252825182820181905260009190848201906040850190845b818110156108195783511515835292840192918401916001016107fb565b50909695505050505050565b6000806000806080858703121561083b57600080fd5b8451801515811461084b57600080fd5b60208601516040870151606088015192965090945092506001600160a01b038116811461087757600080fd5b939692955090935050565b634e487b7160e01b600052604160045260246000fd5b634e487b7160e01b600052603260045260246000fd5b634e487b7160e01b600052601160045260246000fd5b6000600182016108d6576108d66108ae565b5060010190565b8181038181111561032a5761032a6108ae56fea26469706673582212203bade030c7c77e9061924164aa0c0ab69d45a251deca27da1ef986f1e1102ff064736f6c63430008140033",
  "linkReferences": {},
  "deployedLinkReferences": {}
}