{
  "_format": "hh-sol-artifact-1",
  "contractName": "ProofVerifier",
  "sourceName": "contracts/ProofVerifier.sol",
  "abi": [
    {
      "inputs": [
        {
          "internalType": "address",
          "name": "_trustLinkCoreAddress",
          "type": "address"
        }
      ],
      "stateMutability": "nonpayable",
      "type": "constructor"
    },
    {
      "anonymous": false,
      "inputs": [
        {
          "indexed": true,
          "internalType": "bytes32",
          "name": "documentHash",
          "type": "bytes32"
        },
        {
          "indexed": false,
          "internalType": "address",
          "name": "verifiedBy",
          "type": "address"
        },
        {
          "indexed": false,
          "internalType": "uint256",
          "name": "timestamp",
          "type": "uint256"
        }
      ],
      "name": "ProofVerified",
      "type": "event"
    },
    {
      "inputs": [
        {
          "internalType": "bytes32[]",
          "name": "_documentHashes",
          "type": "bytes32[]"
        }
      ],
      "name": "batchVerify",
      "outputs": [
        {
          "internalType": "bool[]",
          "name": "results",
          "type": "bool[]"
        }
      ],
      "stateMutability": "nonpayable",
      "type": "function"
    },
    {
      "inputs": [
        {
          "internalType": "bytes32[]",
          "name": "_documentHashes",
          "type": "bytes32[]"
        }
      ],
      "name": "checkProofsExist",
      "outputs": [
        {
          "internalType": "bool[]",
          "name": "",
          "type": "bool[]"
        }
      ],
      "stateMutability": "view",
      "type": "function"
    },
    {
      "inputs": [
        {
          "internalType": "bytes32",
          "name": "_documentHash",
          "type": "bytes32"
        }
      ],
      "name": "getProofDetails",
      "outputs": [
        {
          "internalType": "bool",
          "name": "exists",
          "type": "bool"
        },
        {
          "internalType": "uint256",
          "name": "timestamp",
          "type": "uint256"
        },
        {
          "internalType": "uint256",
          "name": "agreementId",
          "type": "uint256"
        },
        {
          "internalType": "address",
          "name": "submittedBy",
          "type": "address"
        },
        {
          "internalType": "uint256",
          "name": "ageInSeconds",
          "type": "uint256"
        }
      ],
      "stateMutability": "view",
      "type": "function"
    },
    {
      "inputs": [],
      "name": "trustLinkCore",
      "outputs": [
        {
          "internalType": "contract ITrustLinkCore",
          "name": "",
          "type": "address"
        }
      ],
      "stateMutability": "view",
      "type": "function"
    },
    {
      "inputs": [
        {
          "internalType": "bytes32",
          "name": "_documentHash",
          "type": "bytes32"
        }
      ],
      "name": "verify",
      "outputs": [
        {
          "internalType": "bool",
          "name": "exists",
          "type": "bool"
        },
        {
          "internalType": "uint256",
          "name": "timestamp",
          "type": "uint256"
        },
        {
          "internalType": "address",
          "name": "submittedBy",
          "type": "address"
        }
      ],
      "stateMutability": "nonpayable",
      "type": "function"
    }
  ],
  "bytecode": "0x608060405234801561001057600080fd5b506040516107cf3803806107cf83398101604081905261002f91610054565b600080546001600160a01b0319166001600160a01b0392909216919091179055610084565b60006020828403121561006657600080fd5b81516001600160a01b038116811461007d57600080fd5b9392505050565b61073c806100936000396000f3fe608060405234801561001057600080fd5b50600436106100575760003560e01c80635105b1ba1461005c57806375e366161461008c5780637dc243ea146100c5578063c8fa61571461010b578063efb220d81461012b575b600080fd5b60005461006f906001600160a01b031681565b6040516001600160a01b0390911681526020015b60405180910390f35b61009f61009a366004610567565b61013e565b60408051931515845260208401929092526001600160a01b031690820152606001610083565b6100d86100d3366004610567565b610209565b6040805195151586526020860194909452928401919091526001600160a01b03166060830152608082015260a001610083565b61011e610119366004610580565b6102ba565b60405161008391906105f5565b61011e610139366004610580565b610446565b60008054604051632c50ad3b60e21b815260048101849052829182918291829182916001600160a01b03169063b142b4ec90602401608060405180830381865afa158015610190573d6000803e3d6000fd5b505050506040513d601f19601f820116820180604052508101906101b4919061063b565b9350509250925082156101fc576040805133815242602082015288917f3cbbb4765049102f7d16784aa5e5d53a1f94d5da6878a63974ffabb4989147d6910160405180910390a25b9196909550909350915050565b60008054604051632c50ad3b60e21b815260048101849052829182918291829182918291829182916001600160a01b039091169063b142b4ec90602401608060405180830381865afa158015610263573d6000803e3d6000fd5b505050506040513d601f19601f82011682018060405250810190610287919061063b565b935093509350935060008461029d5760006102a7565b6102a784426106ae565b949b939a50919850965091945092505050565b60608167ffffffffffffffff8111156102d5576102d56106c1565b6040519080825280602002602001820160405280156102fe578160200160208202803683370190505b50905060005b8281101561043e57600080546001600160a01b031663b142b4ec868685818110610330576103306106d7565b905060200201356040518263ffffffff1660e01b815260040161035591815260200190565b608060405180830381865afa158015610372573d6000803e3d6000fd5b505050506040513d601f19601f82011682018060405250810190610396919061063b565b5050509050808383815181106103ae576103ae6106d7565b91151560209283029190910190910152801561042b578484838181106103d6576103d66106d7565b905060200201357f3cbbb4765049102f7d16784aa5e5d53a1f94d5da6878a63974ffabb4989147d633426040516104229291906001600160a01b03929092168252602082015260400190565b60405180910390a25b5080610436816106ed565b915050610304565b505b92915050565b606060008267ffffffffffffffff811115610463576104636106c1565b60405190808252806020026020018201604052801561048c578160200160208202803683370190505b50905060005b8381101561055f57600080546001600160a01b031663b142b4ec8787858181106104be576104be6106d7565b905060200201356040518263ffffffff1660e01b81526004016104e391815260200190565b608060405180830381865afa158015610500573d6000803e3d6000fd5b505050506040513d601f19601f82011682018060405250810190610524919061063b565b50505090508083838151811061053c5761053c6106d7565b911515602092830291909101909101525080610557816106ed565b915050610492565b509392505050565b60006020828403121561057957600080fd5b5035919050565b6000806020838503121561059357600080fd5b823567ffffffffffffffff808211156105ab57600080fd5b818501915085601f8301126105bf57600080fd5b8135818111156105ce57600080fd5b8660208260051b85010111156105e357600080fd5b60209290920196919550909350505050565b6020808252825182820181905260009190848201906040850190845b8181101561062f578351151583529284019291840191600101610611565b50909695505050505050565b6000806000806080858703121561065157600080fd5b8451801515811461066157600080fd5b60208601516040870151606088015192965090945092506001600160a01b038116811461068d57600080fd5b939692955090935050565b634e487b7160e01b600052601160045260246000fd5b8181038181111561044057610440610698565b634e487b7160e01b600052604160045260246000fd5b634e487b7160e01b600052603260045260246000fd5b6000600182016106ff576106ff610698565b506001019056fea2646970667358221220262a6ee2aa6a7383b92849e930ef31c768c843a148ec7319663002de37907d9d64736f6c63430008140033",
  "linkReferences": {},
  "deployedLinkReferences": {}
}