{"contracts/TrustLinkRegistry.sol":{"TrustLinkRegistry":{"abi":[{"inputs":[{"internalType":"address","name":"_trustLinkCoreAddress","type":"address"}],"stateMutability":"nonpayable","type":"constructor"},{"inputs":[],"name":"NotProofOwner","type":"error"},{"inputs":[],"name":"ProofNotExists","type":"error"},{"anonymous":false,"inputs":[{"indexed":true,"internalType":"bytes32","name":"documentHash","type":"bytes32"},{"indexed":false,"internalType":"bool","name":"isPublic","type":"bool"},{"indexed":false,"internalType":"address","name":"setBy","type":"address"}],"name":"ProofVisibilitySet","type":"event"},{"anonymous":false,"inputs":[{"indexed":true,"internalType":"bytes32","name":"documentHash","type":"bytes32"},{"indexed":false,"internalType":"address","name":"owner","type":"address"}],"name":"PublicProofAdded","type":"event"},{"anonymous":false,"inputs":[{"indexed":true,"internalType":"bytes32","name":"documentHash","type":"bytes32"},{"indexed":false,"internalType":"address","name":"owner","type":"address"}],"name":"PublicProofRemoved","type":"event"},{"inputs":[{"internalType":"address","name":"_user","type":"address"}],"name":"getUserPublicProofCount","outputs":[{"internalType":"uint256","name":"","type":"uint256"}],"stateMutability":"view","type":"function"},{"inputs":[{"internalType":"address","name":"_user","type":"address"}],"name":"getUserPublicProofs","outputs":[{"internalType":"bytes32[]","name":"","type":"bytes32[]"}],"stateMutability":"view","type":"function"},{"inputs":[{"internalType":"bytes32","name":"_documentHash","type":"bytes32"}],"name":"isProofPublic","outputs":[{"internalType":"bool","name":"","type":"bool"}],"stateMutability":"view","type":"function"},{"inputs":[{"internalType":"bytes32","name":"","type":"bytes32"}],"name":"isPublicProof","outputs":[{"internalType":"bool","name":"","type":"bool"}],"stateMutability":"view","type":"function"},{"inputs":[{"internalType":"bytes32","name":"_documentHash","type":"bytes32"},{"internalType":"bool","name":"_isPublic","type":"bool"}],"name":"setProofVisibility","outputs":[],"stateMutability":"nonpayable","type":"function"},{"inputs":[],"name":"trustLinkCore","outputs":[{"internalType":"contract ITrustLinkCore","name":"","type":"address"}],"stateMutability":"view","type":"function"},{"inputs":[{"internalType":"address","name":"","type":"address"}],"name":"userProofCount","outputs":[{"internalType":"uint256","name":"","type":"uint256"}],"stateMutability":"view","type":"function"},{"inputs":[{"internalType":"address","name":"","type":"address"},{"internalType":"uint256","name":"","type":"uint256"}],"name":"userPublicProofs","outputs":[{"internalType":"bytes32","name":"","type":"bytes32"}],"stateMutability":"view","type":"function"},{"inputs":[{"internalType":"bytes32","name":"_documentHash","type":"bytes32"}],"name":"verifyPublicProof","outputs":[{"internalType":"bool","name":"verified","type":"bool"},{"internalType":"uint256","name":"timestamp","type":"uint256"},{"internalType":"uint256","name":"agreementId","type":"uint256"},{"internalType":"address","name":"submittedBy","type":"address"}],"stateMutability":"view","type":"function"}],"evm":{"bytecode":{"linkReferences":{},"object":"608060405234801561001057600080fd5b506040516108e03803806108e083398101604081905261002f91610054565b600080546001600160a01b0319166001600160a01b0392909216919091179055610084565b60006020828403121561006657600080fd5b81516001600160a01b038116811461007d57600080fd5b9392505050565b61084d806100936000396000f3fe608060405234801561001057600080fd5b50600436106100935760003560e01c80635105b1ba116100665780635105b1ba1461012657806361dbe09814610151578063715f39a2146101745780639d2ad82b146101b25780639d4494d8146101db57600080fd5b80631fe27278146100985780633c1401d0146100be5780633f642a3b146100de5780634c87e21914610111575b600080fd5b6100ab6100a636600461069a565b6101fb565b6040519081526020015b60405180910390f35b6100ab6100cc3660046106c6565b60026020526000908152604090205481565b6101016100ec3660046106ea565b60016020526000908152604090205460ff1681565b60405190151581526020016100b5565b61012461011f366004610711565b61022c565b005b600054610139906001600160a01b031681565b6040516001600160a01b0390911681526020016100b5565b61010161015f3660046106ea565b60009081526001602052604090205460ff1690565b6101876101823660046106ea565b610548565b6040805194151585526020850193909352918301526001600160a01b031660608201526080016100b5565b6100ab6101c03660046106c6565b6001600160a01b031660009081526002602052604090205490565b6101ee6101e93660046106c6565b610616565b6040516100b59190610741565b6003602052816000526040600020818154811061021757600080fd5b90600052602060002001600091509150505481565b60008054604051632c50ad3b60e21b8152600481018590528492916001600160a01b03169063b142b4ec90602401608060405180830381865afa158015610277573d6000803e3d6000fd5b505050506040513d601f19601f8201168201806040525081019061029b9190610785565b5050509050806102be576040516327f7cddf60e01b815260040160405180910390fd5b60008054604051632c50ad3b60e21b8152600481018790528692916001600160a01b03169063b142b4ec90602401608060405180830381865afa158015610309573d6000803e3d6000fd5b505050506040513d601f19601f8201168201806040525081019061032d9190610785565b9350505050806001600160a01b0316336001600160a01b0316146103645760405163b445d41160e01b815260040160405180910390fd5b600086815260016020526040902080548615801560ff1983161790925560ff169086906103ac57503360009081526004602090815260408083208a845290915290205460ff16155b1561044f573360008181526004602090815260408083208b84528252808320805460ff19166001179055928252600290529081208054916103ec836107e7565b90915550503360008181526003602090815260408083208054600181018255908452928290209092018a9055905191825288917f4aaff050488f9e9cac6ccd17fe548b93bb4d02cd57df467fa750036ebc2db521910160405180910390a2610503565b8515801561047757503360009081526004602090815260408083208a845290915290205460ff165b15610503573360008181526004602090815260408083208b84528252808320805460ff19169055928252600290522054156104cd573360009081526002602052604081208054916104c783610800565b91905055505b60405133815287907fe7d9f85d23cbd9f79b16ed37028ae3938e3e0936edbf700d273364ffa2afb4729060200160405180910390a25b60408051871515815233602082015288917f5653e224d6b25c08d53618210bbf37d026b050b8932e3a16a45afaa61ca2ea1e910160405180910390a250505050505050565b60008054604051632c50ad3b60e21b81526004810184905282918291829182918291829182916001600160a01b03169063b142b4ec90602401608060405180830381865afa15801561059e573d6000803e3d6000fd5b505050506040513d601f19601f820116820180604052508101906105c29190610785565b93509350935093508315806105e6575060008981526001602052604090205460ff16155b156106025760008060008097509750975097505050505061060f565b6001975091955093509150505b9193509193565b6001600160a01b03811660009081526003602090815260409182902080548351818402810184019094528084526060939283018282801561067657602002820191906000526020600020905b815481526020019060010190808311610662575b50505050509050919050565b6001600160a01b038116811461069757600080fd5b50565b600080604083850312156106ad57600080fd5b82356106b881610682565b946020939093013593505050565b6000602082840312156106d857600080fd5b81356106e381610682565b9392505050565b6000602082840312156106fc57600080fd5b5035919050565b801515811461069757600080fd5b6000806040838503121561072457600080fd5b82359150602083013561073681610703565b809150509250929050565b6020808252825182820181905260009190848201906040850190845b818110156107795783518352928401929184019160010161075d565b50909695505050505050565b6000806000806080858703121561079b57600080fd5b84516107a681610703565b80945050602085015192506040850151915060608501516107c681610682565b939692955090935050565b634e487b7160e01b600052601160045260246000fd5b6000600182016107f9576107f96107d1565b5060010190565b60008161080f5761080f6107d1565b50600019019056fea264697066735822122039e1c04a694fd200944a91cb92d0cf1c6b7227185fefb066fd8da0b36f46c93264736f6c63430008140033","opcodes":"PUSH1 0x80 PUSH1 0x40 MSTORE CALLVALUE DUP1 ISZERO PUSH2 0x10 JUMPI PUSH1 0x0 DUP1 REVERT JUMPDEST POP PUSH1 0x40 MLOAD PUSH2 0x8E0 CODESIZE SUB DUP1 PUSH2 0x8E0 DUP4 CODECOPY DUP2 ADD PUSH1 0x40 DUP2 SWAP1 MSTORE PUSH2 0x2F SWAP2 PUSH2 0x54 JUMP JUMPDEST PUSH1 0x0 DUP1 SLOAD PUSH1 0x1 PUSH1 0x1 PUSH1 0xA0 SHL SUB NOT AND PUSH1 0x1 PUSH1 0x1 PUSH1 0xA0 SHL SUB SWAP3 SWAP1 SWAP3 AND SWAP2 SWAP1 SWAP2 OR SWAP1 SSTORE PUSH2 0x84 JUMP JUMPDEST PUSH1 0x0 PUSH1 0x20 DUP3 DUP5 SUB SLT ISZERO PUSH2 0x66 JUMPI PUSH1 0x0 DUP1 REVERT JUMPDEST DUP2 MLOAD PUSH1 0x1 PUSH1 0x1 PUSH1 0xA0 SHL SUB DUP2 AND DUP2 EQ PUSH2 0x7D JUMPI PUSH1 0x0 DUP1 REVERT JUMPDEST SWAP4 SWAP3 POP POP POP JUMP JUMPDEST PUSH2 0x84D DUP1 PUSH2 0x93 PUSH1 0x0 CODECOPY PUSH1 0x0 RETURN INVALID PUSH1 0x80 PUSH1 0x40 MSTORE CALLVALUE DUP1 ISZERO PUSH2 0x10 JUMPI PUSH1 0x0 DUP1 REVERT JUMPDEST POP PUSH1 0x4 CALLDATASIZE LT PUSH2 0x93 JUMPI PUSH1 0x0 CALLDATALOAD PUSH1 0xE0 SHR DUP1 PUSH4 0x5105B1BA GT PUSH2 0x66 JUMPI DUP1 PUSH4 0x5105B1BA EQ PUSH2 0x126 JUMPI DUP1 PUSH4 0x61DBE098 EQ PUSH2 0x151 JUMPI DUP1 PUSH4 0x715F39A2 EQ PUSH2 0x174 JUMPI DUP1 PUSH4 0x9D2AD82B EQ PUSH2 0x1B2 JUMPI DUP1 PUSH4 0x9D4494D8 EQ PUSH2 0x1DB JUMPI PUSH1 0x0 DUP1 REVERT JUMPDEST DUP1 PUSH4 0x1FE27278 EQ PUSH2 0x98 JUMPI DUP1 PUSH4 0x3C1401D0 EQ PUSH2 0xBE JUMPI DUP1 PUSH4 0x3F642A3B EQ PUSH2 0xDE JUMPI DUP1 PUSH4 0x4C87E219 EQ PUSH2 0x111 JUMPI JUMPDEST PUSH1 0x0 DUP1 REVERT JUMPDEST PUSH2 0xAB PUSH2 0xA6 CALLDATASIZE PUSH1 0x4 PUSH2 0x69A JUMP JUMPDEST PUSH2 0x1FB JUMP JUMPDEST PUSH1 0x40 MLOAD SWAP1 DUP2 MSTORE PUSH1 0x20 ADD JUMPDEST PUSH1 0x40 MLOAD DUP1 SWAP2 SUB SWAP1 RETURN JUMPDEST PUSH2 0xAB PUSH2 0xCC CALLDATASIZE PUSH1 0x4 PUSH2 0x6C6 JUMP JUMPDEST PUSH1 0x2 PUSH1 0x20 MSTORE PUSH1 0x0 SWAP1 DUP2 MSTORE PUSH1 0x40 SWAP1 KECCAK256 SLOAD DUP2 JUMP JUMPDEST PUSH2 0x101 PUSH2 0xEC CALLDATASIZE PUSH1 0x4 PUSH2 0x6EA JUMP JUMPDEST PUSH1 0x1 PUSH1 0x20 MSTORE PUSH1 0x0 SWAP1 DUP2 MSTORE PUSH1 0x40 SWAP1 KECCAK256 SLOAD PUSH1 0xFF AND DUP2 JUMP JUMPDEST PUSH1 0x40 MLOAD SWAP1 ISZERO ISZERO DUP2 MSTORE PUSH1 0x20 ADD PUSH2 0xB5 JUMP JUMPDEST PUSH2 0x124 PUSH2 0x11F CALLDATASIZE PUSH1 0x4 PUSH2 0x711 JUMP JUMPDEST PUSH2 0x22C JUMP JUMPDEST STOP JUMPDEST PUSH1 0x0 SLOAD PUSH2 0x139 SWAP1 PUSH1 0x1 PUSH1 0x1 PUSH1 0xA0 SHL SUB AND DUP2 JUMP JUMPDEST PUSH1 0x40 MLOAD PUSH1 0x1 PUSH1 0x1 PUSH1 0xA0 SHL SUB SWAP1 SWAP2 AND DUP2 MSTORE PUSH1 0x20 ADD PUSH2 0xB5 JUMP JUMPDEST PUSH2 0x101 PUSH2 0x15F CALLDATASIZE PUSH1 0x4 PUSH2 0x6EA JUMP JUMPDEST PUSH1 0x0 SWAP1 DUP2 MSTORE PUSH1 0x1 PUSH1 0x20 MSTORE PUSH1 0x40 SWAP1 KECCAK256 SLOAD PUSH1 0xFF AND SWAP1 JUMP JUMPDEST PUSH2 0x187 PUSH2 0x182 CALLDATASIZE PUSH1 0x4 PUSH2 0x6EA JUMP JUMPDEST PUSH2 0x548 JUMP JUMPDEST PUSH1 0x40 DUP1 MLOAD SWAP5 ISZERO ISZERO DUP6 MSTORE PUSH1 0x20 DUP6 ADD SWAP4 SWAP1 SWAP4 MSTORE SWAP2 DUP4 ADD MSTORE PUSH1 0x1 PUSH1 0x1 PUSH1 0xA0 SHL SUB AND PUSH1 0x60 DUP3 ADD MSTORE PUSH1 0x80 ADD PUSH2 0xB5 JUMP JUMPDEST PUSH2 0xAB PUSH2 0x1C0 CALLDATASIZE PUSH1 0x4 PUSH2 0x6C6 JUMP JUMPDEST PUSH1 0x1 PUSH1 0x1 PUSH1 0xA0 SHL SUB AND PUSH1 0x0 SWAP1 DUP2 MSTORE PUSH1 0x2 PUSH1 0x20 MSTORE PUSH1 0x40 SWAP1 KECCAK256 SLOAD SWAP1 JUMP JUMPDEST PUSH2 0x1EE PUSH2 0x1E9 CALLDATASIZE PUSH1 0x4 PUSH2 0x6C6 JUMP JUMPDEST PUSH2 0x616 JUMP JUMPDEST PUSH1 0x40 MLOAD PUSH2 0xB5 SWAP2 SWAP1 PUSH2 0x741 JUMP JUMPDEST PUSH1 0x3 PUSH1 0x20 MSTORE DUP2 PUSH1 0x0 MSTORE PUSH1 0x40 PUSH1 0x0 KECCAK256 DUP2 DUP2 SLOAD DUP2 LT PUSH2 0x217 JUMPI PUSH1 0x0 DUP1 REVERT JUMPDEST SWAP1 PUSH1 0x0 MSTORE PUSH1 0x20 PUSH1 0x0 KECCAK256 ADD PUSH1 0x0 SWAP2 POP SWAP2 POP POP SLOAD DUP2 JUMP JUMPDEST PUSH1 0x0 DUP1 SLOAD PUSH1 0x40 MLOAD PUSH4 0x2C50AD3B PUSH1 0xE2 SHL DUP2 MSTORE PUSH1 0x4 DUP2 ADD DUP6 SWAP1 MSTORE DUP5 SWAP3 SWAP2 PUSH1 0x1 PUSH1 0x1 PUSH1 0xA0 SHL SUB AND SWAP1 PUSH4 0xB142B4EC SWAP1 PUSH1 0x24 ADD PUSH1 0x80 PUSH1 0x40 MLOAD DUP1 DUP4 SUB DUP2 DUP7 GAS STATICCALL ISZERO DUP1 ISZERO PUSH2 0x277 JUMPI RETURNDATASIZE PUSH1 0x0 DUP1 RETURNDATACOPY RETURNDATASIZE PUSH1 0x0 REVERT JUMPDEST POP POP POP POP PUSH1 0x40 MLOAD RETURNDATASIZE PUSH1 0x1F NOT PUSH1 0x1F DUP3 ADD AND DUP3 ADD DUP1 PUSH1 0x40 MSTORE POP DUP2 ADD SWAP1 PUSH2 0x29B SWAP2 SWAP1 PUSH2 0x785 JUMP JUMPDEST POP POP POP SWAP1 POP DUP1 PUSH2 0x2BE JUMPI PUSH1 0x40 MLOAD PUSH4 0x27F7CDDF PUSH1 0xE0 SHL DUP2 MSTORE PUSH1 0x4 ADD PUSH1 0x40 MLOAD DUP1 SWAP2 SUB SWAP1 REVERT JUMPDEST PUSH1 0x0 DUP1 SLOAD PUSH1 0x40 MLOAD PUSH4 0x2C50AD3B PUSH1 0xE2 SHL DUP2 MSTORE PUSH1 0x4 DUP2 ADD DUP8 SWAP1 MSTORE DUP7 SWAP3 SWAP2 PUSH1 0x1 PUSH1 0x1 PUSH1 0xA0 SHL SUB AND SWAP1 PUSH4 0xB142B4EC SWAP1 PUSH1 0x24 ADD PUSH1 0x80 PUSH1 0x40 MLOAD DUP1 DUP4 SUB DUP2 DUP7 GAS STATICCALL ISZERO DUP1 ISZERO PUSH2 0x309 JUMPI RETURNDATASIZE PUSH1 0x0 DUP1 RETURNDATACOPY RETURNDATASIZE PUSH1 0x0 REVERT JUMPDEST POP POP POP POP PUSH1 0x40 MLOAD RETURNDATASIZE PUSH1 0x1F NOT PUSH1 0x1F DUP3 ADD AND DUP3 ADD DUP1 PUSH1 0x40 MSTORE POP DUP2 ADD SWAP1 PUSH2 0x32D SWAP2 SWAP1 PUSH2 0x785 JUMP JUMPDEST SWAP4 POP POP POP POP DUP1 PUSH1 0x1 PUSH1 0x1 PUSH1 0xA0 SHL SUB AND CALLER PUSH1 0x1 PUSH1 0x1 PUSH1 0xA0 SHL SUB AND EQ PUSH2 0x364 JUMPI PUSH1 0x40 MLOAD PUSH4 0xB445D411 PUSH1 0xE0 SHL DUP2 MSTORE PUSH1 0x4 ADD PUSH1 0x40 MLOAD DUP1 SWAP2 SUB SWAP1 REVERT JUMPDEST PUSH1 0x0 DUP7 DUP2 MSTORE PUSH1 0x1 PUSH1 0x20 MSTORE PUSH1 0x40 SWAP1 KECCAK256 DUP1 SLOAD DUP7 ISZERO DUP1 ISZERO PUSH1 0xFF NOT DUP4 AND OR SWAP1 SWAP3 SSTORE PUSH1 0xFF AND SWAP1 DUP7 SWAP1 PUSH2 0x3AC JUMPI POP CALLER PUSH1 0x0 SWAP1 DUP2 MSTORE PUSH1 0x4 PUSH1 0x20 SWAP1 DUP2 MSTORE PUSH1 0x40 DUP1 DUP4 KECCAK256 DUP11 DUP5 MSTORE SWAP1 SWAP2 MSTORE SWAP1 KECCAK256 SLOAD PUSH1 0xFF AND ISZERO JUMPDEST ISZERO PUSH2 0x44F JUMPI CALLER PUSH1 0x0 DUP2 DUP2 MSTORE PUSH1 0x4 PUSH1 0x20 SWAP1 DUP2 MSTORE PUSH1 0x40 DUP1 DUP4 KECCAK256 DUP12 DUP5 MSTORE DUP3 MSTORE DUP1 DUP4 KECCAK256 DUP1 SLOAD PUSH1 0xFF NOT AND PUSH1 0x1 OR SWAP1 SSTORE SWAP3 DUP3 MSTORE PUSH1 0x2 SWAP1 MSTORE SWAP1 DUP2 KECCAK256 DUP1 SLOAD SWAP2 PUSH2 0x3EC DUP4 PUSH2 0x7E7 JUMP JUMPDEST SWAP1 SWAP2 SSTORE POP POP CALLER PUSH1 0x0 DUP2 DUP2 MSTORE PUSH1 0x3 PUSH1 0x20 SWAP1 DUP2 MSTORE PUSH1 0x40 DUP1 DUP4 KECCAK256 DUP1 SLOAD PUSH1 0x1 DUP2 ADD DUP3 SSTORE SWAP1 DUP5 MSTORE SWAP3 DUP3 SWAP1 KECCAK256 SWAP1 SWAP3 ADD DUP11 SWAP1 SSTORE SWAP1 MLOAD SWAP2 DUP3 MSTORE DUP9 SWAP2 PUSH32 0x4AAFF050488F9E9CAC6CCD17FE548B93BB4D02CD57DF467FA750036EBC2DB521 SWAP2 ADD PUSH1 0x40 MLOAD DUP1 SWAP2 SUB SWAP1 LOG2 PUSH2 0x503 JUMP JUMPDEST DUP6 ISZERO DUP1 ISZERO PUSH2 0x477 JUMPI POP CALLER PUSH1 0x0 SWAP1 DUP2 MSTORE PUSH1 0x4 PUSH1 0x20 SWAP1 DUP2 MSTORE PUSH1 0x40 DUP1 DUP4 KECCAK256 DUP11 DUP5 MSTORE SWAP1 SWAP2 MSTORE SWAP1 KECCAK256 SLOAD PUSH1 0xFF AND JUMPDEST ISZERO PUSH2 0x503 JUMPI CALLER PUSH1 0x0 DUP2 DUP2 MSTORE PUSH1 0x4 PUSH1 0x20 SWAP1 DUP2 MSTORE PUSH1 0x40 DUP1 DUP4 KECCAK256 DUP12 DUP5 MSTORE DUP3 MSTORE DUP1 DUP4 KECCAK256 DUP1 SLOAD PUSH1 0xFF NOT AND SWAP1 SSTORE SWAP3 DUP3 MSTORE PUSH1 0x2 SWAP1 MSTORE KECCAK256 SLOAD ISZERO PUSH2 0x4CD JUMPI CALLER PUSH1 0x0 SWAP1 DUP2 MSTORE PUSH1 0x2 PUSH1 0x20 MSTORE PUSH1 0x40 DUP2 KECCAK256 DUP1 SLOAD SWAP2 PUSH2 0x4C7 DUP4 PUSH2 0x800 JUMP JUMPDEST SWAP2 SWAP1 POP SSTORE POP JUMPDEST PUSH1 0x40 MLOAD CALLER DUP2 MSTORE DUP8 SWAP1 PUSH32 0xE7D9F85D23CBD9F79B16ED37028AE3938E3E0936EDBF700D273364FFA2AFB472 SWAP1 PUSH1 0x20 ADD PUSH1 0x40 MLOAD DUP1 SWAP2 SUB SWAP1 LOG2 JUMPDEST PUSH1 0x40 DUP1 MLOAD DUP8 ISZERO ISZERO DUP2 MSTORE CALLER PUSH1 0x20 DUP3 ADD MSTORE DUP9 SWAP2 PUSH32 0x5653E224D6B25C08D53618210BBF37D026B050B8932E3A16A45AFAA61CA2EA1E SWAP2 ADD PUSH1 0x40 MLOAD DUP1 SWAP2 SUB SWAP1 LOG2 POP POP POP POP POP POP POP JUMP JUMPDEST PUSH1 0x0 DUP1 SLOAD PUSH1 0x40 MLOAD PUSH4 0x2C50AD3B PUSH1 0xE2 SHL DUP2 MSTORE PUSH1 0x4 DUP2 ADD DUP5 SWAP1 MSTORE DUP3 SWAP2 DUP3 SWAP2 DUP3 SWAP2 DUP3 SWAP2 DUP3 SWAP2 DUP3 SWAP2 DUP3 SWAP2 PUSH1 0x1 PUSH1 0x1 PUSH1 0xA0 SHL SUB AND SWAP1 PUSH4 0xB142B4EC SWAP1 PUSH1 0x24 ADD PUSH1 0x80 PUSH1 0x40 MLOAD DUP1 DUP4 SUB DUP2 DUP7 GAS STATICCALL ISZERO DUP1 ISZERO PUSH2 0x59E JUMPI RETURNDATASIZE PUSH1 0x0 DUP1 RETURNDATACOPY RETURNDATASIZE PUSH1 0x0 REVERT JUMPDEST POP POP POP POP PUSH1 0x40 MLOAD RETURNDATASIZE PUSH1 0x1F NOT PUSH1 0x1F DUP3 ADD AND DUP3 ADD DUP1 PUSH1 0x40 MSTORE POP DUP2 ADD SWAP1 PUSH2 0x5C2 SWAP2 SWAP1 PUSH2 0x785 JUMP JUMPDEST SWAP4 POP SWAP4 POP SWAP4 POP SWAP4 POP DUP4 ISZERO DUP1 PUSH2 0x5E6 JUMPI POP PUSH1 0x0 DUP10 DUP2 MSTORE PUSH1 0x1 PUSH1 0x20 MSTORE PUSH1 0x40 SWAP1 KECCAK256 SLOAD PUSH1 0xFF AND ISZERO JUMPDEST ISZERO PUSH2 0x602 JUMPI PUSH1 0x0 DUP1 PUSH1 0x0 DUP1 SWAP8 POP SWAP8 POP SWAP8 POP SWAP8 POP POP POP POP POP PUSH2 0x60F JUMP JUMPDEST PUSH1 0x1 SWAP8 POP SWAP2 SWAP6 POP SWAP4 POP SWAP2 POP POP JUMPDEST SWAP2 SWAP4 POP SWAP2 SWAP4 JUMP JUMPDEST PUSH1 0x1 PUSH1 0x1 PUSH1 0xA0 SHL SUB DUP2 AND PUSH1 0x0 SWAP1 DUP2 MSTORE PUSH1 0x3 PUSH1 0x20 SWAP1 DUP2 MSTORE PUSH1 0x40 SWAP2 DUP3 SWAP1 KECCAK256 DUP1 SLOAD DUP4 MLOAD DUP2 DUP5 MUL DUP2 ADD DUP5 ADD SWAP1 SWAP5 MSTORE DUP1 DUP5 MSTORE PUSH1 0x60 SWAP4 SWAP3 DUP4 ADD DUP3 DUP3 DUP1 ISZERO PUSH2 0x676 JUMPI PUSH1 0x20 MUL DUP3 ADD SWAP2 SWAP1 PUSH1 0x0 MSTORE PUSH1 0x20 PUSH1 0x0 KECCAK256 SWAP1 JUMPDEST DUP2 SLOAD DUP2 MSTORE PUSH1 0x20 ADD SWAP1 PUSH1 0x1 ADD SWAP1 DUP1 DUP4 GT PUSH2 0x662 JUMPI JUMPDEST POP POP POP POP POP SWAP1 POP SWAP2 SWAP1 POP JUMP JUMPDEST PUSH1 0x1 PUSH1 0x1 PUSH1 0xA0 SHL SUB DUP2 AND DUP2 EQ PUSH2 0x697 JUMPI PUSH1 0x0 DUP1 REVERT JUMPDEST POP JUMP JUMPDEST PUSH1 0x0 DUP1 PUSH1 0x40 DUP4 DUP6 SUB SLT ISZERO PUSH2 0x6AD JUMPI PUSH1 0x0 DUP1 REVERT JUMPDEST DUP3 CALLDATALOAD PUSH2 0x6B8 DUP2 PUSH2 0x682 JUMP JUMPDEST SWAP5 PUSH1 0x20 SWAP4 SWAP1 SWAP4 ADD CALLDATALOAD SWAP4 POP POP POP JUMP JUMPDEST PUSH1 0x0 PUSH1 0x20 DUP3 DUP5 SUB SLT ISZERO PUSH2 0x6D8 JUMPI PUSH1 0x0 DUP1 REVERT JUMPDEST DUP2 CALLDATALOAD PUSH2 0x6E3 DUP2 PUSH2 0x682 JUMP JUMPDEST SWAP4 SWAP3 POP POP POP JUMP JUMPDEST PUSH1 0x0 PUSH1 0x20 DUP3 DUP5 SUB SLT ISZERO PUSH2 0x6FC JUMPI PUSH1 0x0 DUP1 REVERT JUMPDEST POP CALLDATALOAD SWAP2 SWAP1 POP JUMP JUMPDEST DUP1 ISZERO ISZERO DUP2 EQ PUSH2 0x697 JUMPI PUSH1 0x0 DUP1 REVERT JUMPDEST PUSH1 0x0 DUP1 PUSH1 0x40 DUP4 DUP6 SUB SLT ISZERO PUSH2 0x724 JUMPI PUSH1 0x0 DUP1 REVERT JUMPDEST DUP3 CALLDATALOAD SWAP2 POP PUSH1 0x20 DUP4 ADD CALLDATALOAD PUSH2 0x736 DUP2 PUSH2 0x703 JUMP JUMPDEST DUP1 SWAP2 POP POP SWAP3 POP SWAP3 SWAP1 POP JUMP JUMPDEST PUSH1 0x20 DUP1 DUP3 MSTORE DUP3 MLOAD DUP3 DUP3 ADD DUP2 SWAP1 MSTORE PUSH1 0x0 SWAP2 SWAP1 DUP5 DUP3 ADD SWAP1 PUSH1 0x40 DUP6 ADD SWAP1 DUP5 JUMPDEST DUP2 DUP2 LT ISZERO PUSH2 0x779 JUMPI DUP4 MLOAD DUP4 MSTORE SWAP3 DUP5 ADD SWAP3 SWAP2 DUP5 ADD SWAP2 PUSH1 0x1 ADD PUSH2 0x75D JUMP JUMPDEST POP SWAP1 SWAP7 SWAP6 POP POP POP POP POP POP JUMP JUMPDEST PUSH1 0x0 DUP1 PUSH1 0x0 DUP1 PUSH1 0x80 DUP6 DUP8 SUB SLT ISZERO PUSH2 0x79B JUMPI PUSH1 0x0 DUP1 REVERT JUMPDEST DUP5 MLOAD PUSH2 0x7A6 DUP2 PUSH2 0x703 JUMP JUMPDEST DUP1 SWAP5 POP POP PUSH1 0x20 DUP6 ADD MLOAD SWAP3 POP PUSH1 0x40 DUP6 ADD MLOAD SWAP2 POP PUSH1 0x60 DUP6 ADD MLOAD PUSH2 0x7C6 DUP2 PUSH2 0x682 JUMP JUMPDEST SWAP4 SWAP7 SWAP3 SWAP6 POP SWAP1 SWAP4 POP POP JUMP JUMPDEST PUSH4 0x4E487B71 PUSH1 0xE0 SHL PUSH1 0x0 MSTORE PUSH1 0x11 PUSH1 0x4 MSTORE PUSH1 0x24 PUSH1 0x0 REVERT JUMPDEST PUSH1 0x0 PUSH1 0x1 DUP3 ADD PUSH2 0x7F9 JUMPI PUSH2 0x7F9 PUSH2 0x7D1 JUMP JUMPDEST POP PUSH1 0x1 ADD SWAP1 JUMP JUMPDEST PUSH1 0x0 DUP2 PUSH2 0x80F JUMPI PUSH2 0x80F PUSH2 0x7D1 JUMP JUMPDEST POP PUSH1 0x0 NOT ADD SWAP1 JUMP INVALID LOG2 PUSH5 0x6970667358 0x22 SLT KECCAK256 CODECOPY 0xE1 0xC0 0x4A PUSH10 0x4FD200944A91CB92D0CF SHR PUSH12 0x7227185FEFB066FD8DA0B36F CHAINID 0xC9 ORIGIN PUSH5 0x736F6C6343 STOP ADDMOD EQ STOP CALLER "},"methodIdentifiers":{"getUserPublicProofCount(address)":"9d2ad82b","getUserPublicProofs(address)":"9d4494d8","isProofPublic(bytes32)":"61dbe098","isPublicProof(bytes32)":"3f642a3b","setProofVisibility(bytes32,bool)":"4c87e219","trustLinkCore()":"5105b1ba","userProofCount(address)":"3c1401d0","userPublicProofs(address,uint256)":"1fe27278","verifyPublicProof(bytes32)":"715f39a2"}}}}}