{
  "_format": "hh-sol-artifact-1",
  "contractName": "TrustLinkCore",
  "sourceName": "contracts/TrustLinkCore.sol",
  "abi": [
    {
      "inputs": [],
      "name": "AgreementAlreadyActive",
      "type": "error"
    },
    {
      "inputs": [],
      "name": "AgreementNotExists",
      "type": "error"
    },
    {
      "inputs": [],
      "name": "CannotAcknowledgeOwnProof",
      "type": "error"
    },
    {
      "inputs": [],
      "name": "InvalidAddress",
      "type": "error"
    },
    {
      "inputs": [],
      "name": "InvalidAgreement",
      "type": "error"
    },
    {
      "inputs": [],
      "name": "NotAuthorized",
      "type": "error"
    },
    {
      "inputs": [],
      "name": "ProofAlreadyAcknowledged",
      "type": "error"
    },
    {
      "inputs": [],
      "name": "ProofAlreadyExists",
      "type": "error"
    },
    {
      "inputs": [],
      "name": "ProofAlreadyRevoked",
      "type": "error"
    },
    {
      "inputs": [],
      "name": "ProofNotExists",
      "type": "error"
    },
    {
      "anonymous": false,
      "inputs": [
        {
          "indexed": true,
          "internalType": "uint256",
          "name": "id",
          "type": "uint256"
        },
        {
          "indexed": false,
          "internalType": "address",
          "name": "partner",
          "type": "address"
        }
      ],
      "name": "AgreementAccepted",
      "type": "event"
    },
    {
      "anonymous": false,
      "inputs": [
        {
          "indexed": true,
          "internalType": "uint256",
          "name": "id",
          "type": "uint256"
        },
        {
          "indexed": false,
          "internalType": "address",
          "name": "cancelledBy",
          "type": "address"
        }
      ],
      "name": "AgreementCancelled",
      "type": "event"
    },
    {
      "anonymous": false,
      "inputs": [
        {
          "indexed": true,
          "internalType": "uint256",
          "name": "id",
          "type": "uint256"
        },
        {
          "indexed": true,
          "internalType": "address",
          "name": "initiator",
          "type": "address"
        },
        {
          "indexed": true,
          "internalType": "address",
          "name": "partner",
          "type": "address"
        }
      ],
      "name": "AgreementCreated",
      "type": "event"
    },
    {
      "anonymous": false,
      "inputs": [
        {
          "indexed": true,
          "internalType": "bytes32",
          "name": "documentHash",
          "type": "bytes32"
        },
        {
          "indexed": false,
          "internalType": "address",
          "name": "acknowledgedBy",
          "type": "address"
        }
      ],
      "name": "ProofAcknowledged",
      "type": "event"
    },
    {
      "anonymous": false,
      "inputs": [
        {
          "indexed": true,
          "internalType": "uint256",
          "name": "agreementId",
          "type": "uint256"
        },
        {
          "indexed": true,
          "internalType": "bytes32",
          "name": "documentHash",
          "type": "bytes32"
        },
        {
          "indexed": true,
          "internalType": "address",
          "name": "submittedBy",
          "type": "address"
        }
      ],
      "name": "ProofRecorded",
      "type": "event"
    },
    {
      "anonymous": false,
      "inputs": [
        {
          "indexed": true,
          "internalType": "bytes32",
          "name": "documentHash",
          "type": "bytes32"
        },
        {
          "indexed": false,
          "internalType": "address",
          "name": "proposedBy",
          "type": "address"
        }
      ],
      "name": "ProofRevocationProposed",
      "type": "event"
    },
    {
      "anonymous": false,
      "inputs": [
        {
          "indexed": true,
          "internalType": "bytes32",
          "name": "documentHash",
          "type": "bytes32"
        },
        {
          "indexed": false,
          "internalType": "address",
          "name": "revokedBy",
          "type": "address"
        }
      ],
      "name": "ProofRevoked",
      "type": "event"
    },
    {
      "inputs": [
        {
          "internalType": "uint256",
          "name": "_agreementId",
          "type": "uint256"
        }
      ],
      "name": "acceptAgreement",
      "outputs": [],
      "stateMutability": "nonpayable",
      "type": "function"
    },
    {
      "inputs": [
        {
          "internalType": "bytes32",
          "name": "_documentHash",
          "type": "bytes32"
        }
      ],
      "name": "acknowledgeProof",
      "outputs": [],
      "stateMutability": "nonpayable",
      "type": "function"
    },
    {
      "inputs": [
        {
          "internalType": "uint256",
          "name": "",
          "type": "uint256"
        }
      ],
      "name": "agreements",
      "outputs": [
        {
          "internalType": "uint256",
          "name": "id",
          "type": "uint256"
        },
        {
          "internalType": "address",
          "name": "initiator",
          "type": "address"
        },
        {
          "internalType": "address",
          "name": "partner",
          "type": "address"
        },
        {
          "internalType": "bool",
          "name": "isActive",
          "type": "bool"
        },
        {
          "internalType": "uint256",
          "name": "createdAt",
          "type": "uint256"
        }
      ],
      "stateMutability": "view",
      "type": "function"
    },
    {
      "inputs": [
        {
          "internalType": "uint256",
          "name": "_agreementId",
          "type": "uint256"
        }
      ],
      "name": "cancelAgreement",
      "outputs": [],
      "stateMutability": "nonpayable",
      "type": "function"
    },
    {
      "inputs": [
        {
          "internalType": "address",
          "name": "_partner",
          "type": "address"
        }
      ],
      "name": "createAgreement",
      "outputs": [
        {
          "internalType": "uint256",
          "name": "",
          "type": "uint256"
        }
      ],
      "stateMutability": "nonpayable",
      "type": "function"
    },
    {
      "inputs": [
        {
          "internalType": "bytes32",
          "name": "_documentHash",
          "type": "bytes32"
        },
        {
          "internalType": "uint256",
          "name": "_agreementId",
          "type": "uint256"
        }
      ],
      "name": "generateSaltedHash",
      "outputs": [
        {
          "internalType": "bytes32",
          "name": "",
          "type": "bytes32"
        }
      ],
      "stateMutability": "pure",
      "type": "function"
    },
    {
      "inputs": [
        {
          "internalType": "uint256",
          "name": "_agreementId",
          "type": "uint256"
        }
      ],
      "name": "getAgreement",
      "outputs": [
        {
          "components": [
            {
              "internalType": "uint256",
              "name": "id",
              "type": "uint256"
            },
            {
              "internalType": "address",
              "name": "initiator",
              "type": "address"
            },
            {
              "internalType": "address",
              "name": "partner",
              "type": "address"
            },
            {
              "internalType": "bool",
              "name": "isActive",
              "type": "bool"
            },
            {
              "internalType": "uint256",
              "name": "createdAt",
              "type": "uint256"
            }
          ],
          "internalType": "struct ITrustLinkCore.Agreement",
          "name": "",
          "type": "tuple"
        }
      ],
      "stateMutability": "view",
      "type": "function"
    },
    {
      "inputs": [
        {
          "internalType": "bytes32",
          "name": "_documentHash",
          "type": "bytes32"
        }
      ],
      "name": "getProof",
      "outputs": [
        {
          "components": [
            {
              "internalType": "uint256",
              "name": "agreementId",
              "type": "uint256"
            },
            {
              "internalType": "bytes32",
              "name": "documentHash",
              "type": "bytes32"
            },
            {
              "internalType": "uint256",
              "name": "timestamp",
              "type": "uint256"
            },
            {
              "internalType": "address",
              "name": "submittedBy",
              "type": "address"
            },
            {
              "internalType": "bool",
              "name": "requiresBilateralAck",
              "type": "bool"
            },
            {
              "internalType": "bool",
              "name": "acknowledgedByPartner",
              "type": "bool"
            },
            {
              "internalType": "bool",
              "name": "isRevoked",
              "type": "bool"
            }
          ],
          "internalType": "struct ITrustLinkCore.Proof",
          "name": "",
          "type": "tuple"
        }
      ],
      "stateMutability": "view",
      "type": "function"
    },
    {
      "inputs": [],
      "name": "getTotalAgreements",
      "outputs": [
        {
          "internalType": "uint256",
          "name": "",
          "type": "uint256"
        }
      ],
      "stateMutability": "view",
      "type": "function"
    },
    {
      "inputs": [
        {
          "internalType": "address",
          "name": "_user",
          "type": "address"
        }
      ],
      "name": "getUserAgreements",
      "outputs": [
        {
          "internalType": "uint256[]",
          "name": "",
          "type": "uint256[]"
        }
      ],
      "stateMutability": "view",
      "type": "function"
    },
    {
      "inputs": [
        {
          "internalType": "uint256",
          "name": "_agreementId",
          "type": "uint256"
        }
      ],
      "name": "isAgreementActive",
      "outputs": [
        {
          "internalType": "bool",
          "name": "",
          "type": "bool"
        }
      ],
      "stateMutability": "view",
      "type": "function"
    },
    {
      "inputs": [
        {
          "internalType": "bytes32",
          "name": "",
          "type": "bytes32"
        }
      ],
      "name": "proofs",
      "outputs": [
        {
          "internalType": "uint256",
          "name": "agreementId",
          "type": "uint256"
        },
        {
          "internalType": "bytes32",
          "name": "documentHash",
          "type": "bytes32"
        },
        {
          "internalType": "uint256",
          "name": "timestamp",
          "type": "uint256"
        },
        {
          "internalType": "address",
          "name": "submittedBy",
          "type": "address"
        },
        {
          "internalType": "bool",
          "name": "requiresBilateralAck",
          "type": "bool"
        },
        {
          "internalType": "bool",
          "name": "acknowledgedByPartner",
          "type": "bool"
        },
        {
          "internalType": "bool",
          "name": "isRevoked",
          "type": "bool"
        }
      ],
      "stateMutability": "view",
      "type": "function"
    },
    {
      "inputs": [
        {
          "internalType": "bytes32",
          "name": "_documentHash",
          "type": "bytes32"
        }
      ],
      "name": "proposeRevocation",
      "outputs": [],
      "stateMutability": "nonpayable",
      "type": "function"
    },
    {
      "inputs": [
        {
          "internalType": "uint256",
          "name": "_agreementId",
          "type": "uint256"
        },
        {
          "internalType": "bytes32",
          "name": "_documentHash",
          "type": "bytes32"
        }
      ],
      "name": "recordProof",
      "outputs": [],
      "stateMutability": "nonpayable",
      "type": "function"
    },
    {
      "inputs": [
        {
          "internalType": "uint256",
          "name": "_agreementId",
          "type": "uint256"
        },
        {
          "internalType": "bytes32",
          "name": "_documentHash",
          "type": "bytes32"
        }
      ],
      "name": "recordProofWithAck",
      "outputs": [],
      "stateMutability": "nonpayable",
      "type": "function"
    },
    {
      "inputs": [
        {
          "internalType": "bytes32",
          "name": "_documentHash",
          "type": "bytes32"
        }
      ],
      "name": "revokeProof",
      "outputs": [],
      "stateMutability": "nonpayable",
      "type": "function"
    },
    {
      "inputs": [
        {
          "internalType": "bytes32",
          "name": "_documentHash",
          "type": "bytes32"
        }
      ],
      "name": "verifyProof",
      "outputs": [
        {
          "internalType": "bool",
          "name": "exists",
          "type": "bool"
        },
        {
          "internalType": "uint256",
          "name": "timestamp",
          "type": "uint256"
        },
        {
          "internalType": "uint256",
          "name": "agreementId",
          "type": "uint256"
        },
        {
          "internalType": "address",
          "name": "submittedBy",
          "type": "address"
        }
      ],
      "stateMutability": "view",
      "type": "function"
    }
  ],
  "bytecode": "0x608060405234801561001057600080fd5b50611599806100206000396000f3fe608060405234801561001057600080fd5b506004361061010b5760003560e01c80635686b54b116100a2578063b142b4ec11610071578063b142b4ec1461038b578063b6e79110146103c9578063bd14de96146103dc578063bd933d1b14610460578063ea81f0f81461046857600080fd5b80635686b54b146103325780637eea8b9714610345578063884eb94914610358578063adb9cae61461036b57600080fd5b8063426a8745116100de578063426a8745146101d3578063444d95b0146101e657806346c90c4d1461028a5780634f9f6fe6146102d257600080fd5b806310661851146101105780631b80bb3a1461013857806339583e22146101ab5780633ae776d2146101c0575b600080fd5b61012361011e36600461148d565b61047b565b60405190151581526020015b60405180910390f35b61014b61014636600461148d565b6104b9565b60405161012f91908151815260208083015190820152604080830151908201526060808301516001600160a01b03169082015260808083015115159082015260a08083015115159082015260c09182015115159181019190915260e00190565b6101be6101b936600461148d565b6105a1565b005b6101be6101ce36600461148d565b610752565b6101be6101e136600461148d565b610856565b6102476101f436600461148d565b60026020819052600091825260409091208054600182015492820154600390920154909291906001600160a01b0381169060ff600160a01b8204811691600160a81b8104821691600160b01b9091041687565b604080519788526020880196909652948601939093526001600160a01b03909116606085015215156080840152151560a0830152151560c082015260e00161012f565b6102c46102983660046114a6565b604080516020808201949094528082019290925280518083038201815260609092019052805191012090565b60405190815260200161012f565b6102e56102e036600461148d565b6109a3565b60408051825181526020808401516001600160a01b03908116918301919091528383015116918101919091526060808301511515908201526080918201519181019190915260a00161012f565b6101be61034036600461148d565b610a60565b6101be61035336600461148d565b610b8f565b6102c46103663660046114c8565b610cc7565b61037e6103793660046114c8565b610e1e565b60405161012f91906114f8565b61039e61039936600461148d565b610e8a565b6040805194151585526020850193909352918301526001600160a01b0316606082015260800161012f565b6101be6103d73660046114a6565b610f46565b61042a6103ea36600461148d565b600160208190526000918252604090912080549181015460028201546003909201546001600160a01b039182169291821691600160a01b900460ff169085565b604080519586526001600160a01b039485166020870152929093169184019190915215156060830152608082015260a00161012f565b6000546102c4565b6101be6104763660046114a6565b6111c2565b60008181526004602052604081205460ff1661049957506000919050565b50600090815260016020526040902060020154600160a01b900460ff1690565b6040805160e081018252600080825260208201819052918101829052606081018290526080810182905260a0810182905260c08101919091526000828152600260208190526040822001549003610523576040516327f7cddf60e01b815260040160405180910390fd5b50600090815260026020818152604092839020835160e081018552815481526001820154928101929092529182015492810192909252600301546001600160a01b038116606083015260ff600160a01b8204811615156080840152600160a81b82048116151560a0840152600160b01b90910416151560c082015290565b60008181526002602081905260408220908101549091036105d5576040516327f7cddf60e01b815260040160405180910390fd5b6003810154600160a01b900460ff166106015760405163ea8e4eb560e01b815260040160405180910390fd5b6003810154336001600160a01b039091160361063057604051630a38545960e41b815260040160405180910390fd5b6003810154600160a81b900460ff161561065d57604051636cadbb7b60e01b815260040160405180910390fd5b8054600090815260016020818152604092839020835160a08101855281548152928101546001600160a01b03908116928401839052600282015490811694840194909452600160a01b90930460ff161515606083015260039092015460808201529033148015906106e4575080604001516001600160a01b0316336001600160a01b031614155b156107025760405163ea8e4eb560e01b815260040160405180910390fd5b60038201805460ff60a81b1916600160a81b17905560405133815283907fbae96633a7f00a379a0092e6d093e0940b79f046d34df1048a3f38dcd7120c97906020015b60405180910390a2505050565b600081815260046020526040902054819060ff166107835760405163b5c6c3ab60e01b815260040160405180910390fd5b600082815260016020526040902060028101546001600160a01b031633146107be5760405163ea8e4eb560e01b815260040160405180910390fd5b6002810154600160a01b900460ff16156107eb576040516397474ff360e01b815260040160405180910390fd5b60028101805460ff60a01b1916600160a01b179055336000818152600360209081526040808320805460018101825590845292829020909201869055905191825284917ff224101ad9200623928d9e682ba2635e7cc131c0927bce7b9c0ae8a8cb2187939101610745565b600081815260026020819052604082209081015490910361088a576040516327f7cddf60e01b815260040160405180910390fd5b6003810154600160b01b900460ff16156108b757604051630648fc3160e11b815260040160405180910390fd5b8054600090815260016020818152604092839020835160a08101855281548152928101546001600160a01b03908116928401839052600282015490811694840194909452600160a01b90930460ff1615156060830152600390920154608082015290331480159061093e575080604001516001600160a01b0316336001600160a01b031614155b1561095c5760405163ea8e4eb560e01b815260040160405180910390fd5b60038201805460ff60b01b1916600160b01b17905560405133815283907f02f2329df10dc2892ddba02ed9963dc51fd04baca65b50c837f74b7da97c9efa90602001610745565b6040805160a08101825260008082526020820181905291810182905260608101829052608081019190915260008281526004602052604090205460ff166109fd5760405163b5c6c3ab60e01b815260040160405180910390fd5b50600090815260016020818152604092839020835160a08101855281548152928101546001600160a01b0390811692840192909252600281015491821693830193909352600160a01b900460ff1615156060820152600390910154608082015290565b600081815260046020526040902054819060ff16610a915760405163b5c6c3ab60e01b815260040160405180910390fd5b600082815260016020818152604092839020835160a08101855281548152928101546001600160a01b03908116928401839052600282015490811694840194909452600160a01b90930460ff1615156060830152600390920154608082015283913314801590610b17575080604001516001600160a01b0316336001600160a01b031614155b15610b355760405163ea8e4eb560e01b815260040160405180910390fd5b60008481526001602090815260409182902060028101805460ff60a01b19169055915133815286917fbc4582906f1267fc1f22792d8da00979cfc526d95c149cc6e7c0ef730f592d6e910160405180910390a25050505050565b6000818152600260208190526040822090810154909103610bc3576040516327f7cddf60e01b815260040160405180910390fd5b6003810154600160b01b900460ff1615610bf057604051630648fc3160e11b815260040160405180910390fd5b8054600090815260016020818152604092839020835160a08101855281548152928101546001600160a01b03908116928401839052600282015490811694840194909452600160a01b90930460ff16151560608301526003909201546080820152903314801590610c77575080604001516001600160a01b0316336001600160a01b031614155b15610c955760405163ea8e4eb560e01b815260040160405180910390fd5b60405133815283907f548cf7236cf4815910735f248f5b5e83582102aef301544da99212237679ef8990602001610745565b6000816001600160a01b038116610cf15760405163e6c4247b60e01b815260040160405180910390fd5b336001600160a01b03841603610d1a5760405163e6c4247b60e01b815260040160405180910390fd5b600080549080610d298361153c565b9091555050600080546040805160a0810182528281523360208083018281526001600160a01b038a8116858701818152606087018a815242608089019081528a8c5260018088528a8d2099518a55955189870180549187166001600160a01b0319909216919091179055915160028901805492511515600160a01b026001600160a81b0319909316919095161717909255905160039586015560048352858820805460ff1916831790558388529382528487208054918201815587529086200184905591519293909284917fe037ec30313eecdd927ffae3beed86a87b82f7bb794966ec08d75cf1a6e8268691a49392505050565b6001600160a01b038116600090815260036020908152604091829020805483518184028101840190945280845260609392830182828015610e7e57602002820191906000526020600020905b815481526020019060010190808311610e6a575b50505050509050919050565b6000818152600260208181526040808420815160e08101835281548152600182015493810193909352928301549082018190526003909201546001600160a01b038116606083015260ff600160a01b8204811615156080840152600160a81b82048116151560a0840152600160b01b90910416151560c08201528291829182918203610f2457600080600080945094509450945050610f3f565b60018160400151826000015183606001519450945094509450505b9193509193565b600082815260046020526040902054829060ff16610f775760405163b5c6c3ab60e01b815260040160405180910390fd5b600083815260016020818152604092839020835160a08101855281548152928101546001600160a01b03908116928401839052600282015490811694840194909452600160a01b90930460ff1615156060830152600390920154608082015284913314801590610ffd575080604001516001600160a01b0316336001600160a01b031614155b1561101b5760405163ea8e4eb560e01b815260040160405180910390fd5b600085815260016020818152604092839020835160a08101855281548152928101546001600160a01b0390811692840192909252600281015491821693830193909352600160a01b900460ff1615156060820181905260039092015460808201529061109a57604051637f0ed44d60e11b815260040160405180910390fd5b60008581526002602081905260409091200154156110cb5760405163b8cdb9bd60e01b815260040160405180910390fd5b6040805160e081018252878152602080820188815242838501908152336060850181815260006080870181815260a0880182815260c089018381528f84526002988990528a842099518a55965160018a01559451968801969096559051600390960180549551935194511515600160b01b0260ff60b01b19951515600160a81b029590951661ffff60a81b19941515600160a01b026001600160a81b03199097166001600160a01b0398909816979097179590951792909216949094179190911790915591519091879189917f65beb38acd92cb0f98fb54a2eb7bdfc00e848e40abd871c0fda3282f0366831691a4505050505050565b600082815260046020526040902054829060ff166111f35760405163b5c6c3ab60e01b815260040160405180910390fd5b600083815260016020818152604092839020835160a08101855281548152928101546001600160a01b03908116928401839052600282015490811694840194909452600160a01b90930460ff1615156060830152600390920154608082015284913314801590611279575080604001516001600160a01b0316336001600160a01b031614155b156112975760405163ea8e4eb560e01b815260040160405180910390fd5b600085815260016020818152604092839020835160a08101855281548152928101546001600160a01b0390811692840192909252600281015491821693830193909352600160a01b900460ff1615156060820181905260039092015460808201529061131657604051637f0ed44d60e11b815260040160405180910390fd5b60008581526002602081905260409091200154156113475760405163b8cdb9bd60e01b815260040160405180910390fd5b6040518060e00160405280878152602001868152602001428152602001336001600160a01b03168152602001600115158152602001600015158152602001600015158152506002600087815260200190815260200160002060008201518160000155602082015181600101556040820151816002015560608201518160030160006101000a8154816001600160a01b0302191690836001600160a01b0316021790555060808201518160030160146101000a81548160ff02191690831515021790555060a08201518160030160156101000a81548160ff02191690831515021790555060c08201518160030160166101000a81548160ff021916908315150217905550905050336001600160a01b031685877f65beb38acd92cb0f98fb54a2eb7bdfc00e848e40abd871c0fda3282f0366831660405160405180910390a4505050505050565b60006020828403121561149f57600080fd5b5035919050565b600080604083850312156114b957600080fd5b50508035926020909101359150565b6000602082840312156114da57600080fd5b81356001600160a01b03811681146114f157600080fd5b9392505050565b6020808252825182820181905260009190848201906040850190845b8181101561153057835183529284019291840191600101611514565b50909695505050505050565b60006001820161155c57634e487b7160e01b600052601160045260246000fd5b506001019056fea264697066735822122014cd7ae2635eefc581069dd247714485f81070a55eaf172b57bee7410061378e64736f6c63430008140033",
  "linkReferences": {},
  "deployedLinkReferences": {}
}