{
  "_format": "hh-sol-artifact-1",
  "contractName": "TrustLinkRegistry",
  "sourceName": "contracts/TrustLinkRegistry.sol",
  "abi": [
    {
      "inputs": [
        {
          "internalType": "address",
          "name": "_trustLinkCoreAddress",
          "type": "address"
        }
      ],
      "stateMutability": "nonpayable",
      "type": "constructor"
    },
    {
      "inputs": [],
      "name": "NotProofOwner",
      "type": "error"
    },
    {
      "inputs": [],
      "name": "ProofNotExists",
      "type": "error"
    },
    {
      "anonymous": false,
      "inputs": [
        {
          "indexed": true,
          "internalType": "bytes32",
          "name": "documentHash",
          "type": "bytes32"
        },
        {
          "indexed": false,
          "internalType": "bool",
          "name": "isPublic",
          "type": "bool"
        },
        {
          "indexed": false,
          "internalType": "address",
          "name": "setBy",
          "type": "address"
        }
      ],
      "name": "ProofVisibilitySet",
      "type": "event"
    },
    {
      "anonymous": false,
      "inputs": [
        {
          "indexed": true,
          "internalType": "bytes32",
          "name": "documentHash",
          "type": "bytes32"
        },
        {
          "indexed": false,
          "internalType": "address",
          "name": "owner",
          "type": "address"
        }
      ],
      "name": "PublicProofAdded",
      "type": "event"
    },
    {
      "anonymous": false,
      "inputs": [
        {
          "indexed": true,
          "internalType": "bytes32",
          "name": "documentHash",
          "type": "bytes32"
        },
        {
          "indexed": false,
          "internalType": "address",
          "name": "owner",
          "type": "address"
        }
      ],
      "name": "PublicProofRemoved",
      "type": "event"
    },
    {
      "inputs": [
        {
          "internalType": "address",
          "name": "_user",
          "type": "address"
        }
      ],
      "name": "getUserPublicProofCount",
      "outputs": [
        {
          "internalType": "uint256",
          "name": "",
          "type": "uint256"
        }
      ],
      "stateMutability": "view",
      "type": "function"
    },
    {
      "inputs": [
        {
          "internalType": "address",
          "name": "_user",
          "type": "address"
        }
      ],
      "name": "getUserPublicProofs",
      "outputs": [
        {
          "internalType": "bytes32[]",
          "name": "",
          "type": "bytes32[]"
        }
      ],
      "stateMutability": "view",
      "type": "function"
    },
    {
      "inputs": [
        {
          "internalType": "bytes32",
          "name": "_documentHash",
          "type": "bytes32"
        }
      ],
      "name": "isProofPublic",
      "outputs": [
        {
          "internalType": "bool",
          "name": "",
          "type": "bool"
        }
      ],
      "stateMutability": "view",
      "type": "function"
    },
    {
      "inputs": [
        {
          "internalType": "bytes32",
          "name": "",
          "type": "bytes32"
        }
      ],
      "name": "isPublicProof",
      "outputs": [
        {
          "internalType": "bool",
          "name": "",
          "type": "bool"
        }
      ],
      "stateMutability": "view",
      "type": "function"
    },
    {
      "inputs": [
        {
          "internalType": "bytes32",
          "name": "_documentHash",
          "type": "bytes32"
        },
        {
          "internalType": "bool",
          "name": "_isPublic",
          "type": "bool"
        }
      ],
      "name": "setProofVisibility",
      "outputs": [],
      "stateMutability": "nonpayable",
      "type": "function"
    },
    {
      "inputs": [],
      "name": "trustLinkCore",
      "outputs": [
        {
          "internalType": "contract ITrustLinkCore",
          "name": "",
          "type": "address"
        }
      ],
      "stateMutability": "view",
      "type": "function"
    },
    {
      "inputs": [
        {
          "internalType": "address",
          "name": "",
          "type": "address"
        }
      ],
      "name": "userProofCount",
      "outputs": [
        {
          "internalType": "uint256",
          "name": "",
          "type": "uint256"
        }
      ],
      "stateMutability": "view",
      "type": "function"
    },
    {
      "inputs": [
        {
          "internalType": "address",
          "name": "",
          "type": "address"
        },
        {
          "internalType": "uint256",
          "name": "",
          "type": "uint256"
        }
      ],
      "name": "userPublicProofs",
      "outputs": [
        {
          "internalType": "bytes32",
          "name": "",
          "type": "bytes32"
        }
      ],
      "stateMutability": "view",
      "type": "function"
    },
    {
      "inputs": [
        {
          "internalType": "bytes32",
          "name": "_documentHash",
          "type": "bytes32"
        }
      ],
      "name": "verifyPublicProof",
      "outputs": [
        {
          "internalType": "bool",
          "name": "verified",
          "type": "bool"
        },
        {
          "internalType": "uint256",
          "name": "timestamp",
          "type": "uint256"
        },
        {
          "internalType": "uint256",
          "name": "agreementId",
          "type": "uint256"
        },
        {
          "internalType": "address",
          "name": "submittedBy",
          "type": "address"
        }
      ],
      "stateMutability": "view",
      "type": "function"
    }
  ],
  "bytecode": "0x608060405234801561001057600080fd5b506040516108dd3803806108dd83398101604081905261002f91610054565b600080546001600160a01b0319166001600160a01b0392909216919091179055610084565b60006020828403121561006657600080fd5b81516001600160a01b038116811461007d57600080fd5b9392505050565b61084a806100936000396000f3fe608060405234801561001057600080fd5b50600436106100935760003560e01c80635105b1ba116100665780635105b1ba1461012657806361dbe09814610151578063715f39a2146101745780639d2ad82b146101b25780639d4494d8146101db57600080fd5b80631fe27278146100985780633c1401d0146100be5780633f642a3b146100de5780634c87e21914610111575b600080fd5b6100ab6100a6366004610697565b6101fb565b6040519081526020015b60405180910390f35b6100ab6100cc3660046106c3565b60026020526000908152604090205481565b6101016100ec3660046106e7565b60016020526000908152604090205460ff1681565b60405190151581526020016100b5565b61012461011f36600461070e565b61022c565b005b600054610139906001600160a01b031681565b6040516001600160a01b0390911681526020016100b5565b61010161015f3660046106e7565b60009081526001602052604090205460ff1690565b6101876101823660046106e7565b610545565b6040805194151585526020850193909352918301526001600160a01b031660608201526080016100b5565b6100ab6101c03660046106c3565b6001600160a01b031660009081526002602052604090205490565b6101ee6101e93660046106c3565b610613565b6040516100b5919061073e565b6003602052816000526040600020818154811061021757600080fd5b90600052602060002001600091509150505481565b60008054604051632c50ad3b60e21b8152600481018590528492916001600160a01b03169063b142b4ec90602401608060405180830381865afa158015610277573d6000803e3d6000fd5b505050506040513d601f19601f8201168201806040525081019061029b9190610782565b5050509050806102be576040516327f7cddf60e01b815260040160405180910390fd5b60008054604051632c50ad3b60e21b8152600481018790528692916001600160a01b03169063b142b4ec90602401608060405180830381865afa158015610309573d6000803e3d6000fd5b505050506040513d601f19601f8201168201806040525081019061032d9190610782565b9350505050806001600160a01b0316336001600160a01b0316146103645760405163b445d41160e01b815260040160405180910390fd5b6000868152600160205260409020805460ff1916861580159190911790915585906103aa575033600090815260046020908152604080832089845290915290205460ff16155b1561044d573360008181526004602090815260408083208a84528252808320805460ff19166001179055928252600290529081208054916103ea836107e4565b9091555050336000818152600360209081526040808320805460018101825590845292829020909201899055905191825287917f4aaff050488f9e9cac6ccd17fe548b93bb4d02cd57df467fa750036ebc2db521910160405180910390a2610501565b84158015610475575033600090815260046020908152604080832089845290915290205460ff165b15610501573360008181526004602090815260408083208a84528252808320805460ff19169055928252600290522054156104cb573360009081526002602052604081208054916104c5836107fd565b91905055505b60405133815286907fe7d9f85d23cbd9f79b16ed37028ae3938e3e0936edbf700d273364ffa2afb4729060200160405180910390a25b60408051861515815233602082015287917f5653e224d6b25c08d53618210bbf37d026b050b8932e3a16a45afaa61ca2ea1e910160405180910390a2505050505050565b60008054604051632c50ad3b60e21b81526004810184905282918291829182918291829182916001600160a01b03169063b142b4ec90602401608060405180830381865afa15801561059b573d6000803e3d6000fd5b505050506040513d601f19601f820116820180604052508101906105bf9190610782565b93509350935093508315806105e3575060008981526001602052604090205460ff16155b156105ff5760008060008097509750975097505050505061060c565b6001975091955093509150505b9193509193565b6001600160a01b03811660009081526003602090815260409182902080548351818402810184019094528084526060939283018282801561067357602002820191906000526020600020905b81548152602001906001019080831161065f575b50505050509050919050565b6001600160a01b038116811461069457600080fd5b50565b600080604083850312156106aa57600080fd5b82356106b58161067f565b946020939093013593505050565b6000602082840312156106d557600080fd5b81356106e08161067f565b9392505050565b6000602082840312156106f957600080fd5b5035919050565b801515811461069457600080fd5b6000806040838503121561072157600080fd5b82359150602083013561073381610700565b809150509250929050565b6020808252825182820181905260009190848201906040850190845b818110156107765783518352928401929184019160010161075a565b50909695505050505050565b6000806000806080858703121561079857600080fd5b84516107a381610700565b80945050602085015192506040850151915060608501516107c38161067f565b939692955090935050565b634e487b7160e01b600052601160045260246000fd5b6000600182016107f6576107f66107ce565b5060010190565b60008161080c5761080c6107ce565b50600019019056fea264697066735822122021d14c06ee84dd34a62feca9ad1fd9c6db375bbb3729d69ec187de95104dfd6d64736f6c63430008140033",
  "linkReferences": {},
  "deployedLinkReferences": {}
}